{
  "contractName": "OwnedSet",
  "abi": [
    {
      "constant": true,
      "inputs": [],
      "name": "recentBlocks",
      "outputs": [
        {
          "name": "",
          "type": "uint256"
        }
      ],
      "payable": false,
      "stateMutability": "view",
      "type": "function"
    },
    {
      "constant": true,
      "inputs": [],
      "name": "getPending",
      "outputs": [
        {
          "name": "",
          "type": "address[]"
        }
      ],
      "payable": false,
      "stateMutability": "view",
      "type": "function"
    },
    {
      "constant": false,
      "inputs": [
        {
          "name": "_validator",
          "type": "address"
        }
      ],
      "name": "removeValidator",
      "outputs": [],
      "payable": false,
      "stateMutability": "nonpayable",
      "type": "function"
    },
    {
      "constant": false,
      "inputs": [
        {
          "name": "_validator",
          "type": "address"
        }
      ],
      "name": "addValidator",
      "outputs": [],
      "payable": false,
      "stateMutability": "nonpayable",
      "type": "function"
    },
    {
      "constant": false,
      "inputs": [
        {
          "name": "_recentBlocks",
          "type": "uint256"
        }
      ],
      "name": "setRecentBlocks",
      "outputs": [],
      "payable": false,
      "stateMutability": "nonpayable",
      "type": "function"
    },
    {
      "constant": true,
      "inputs": [],
      "name": "owner",
      "outputs": [
        {
          "name": "",
          "type": "address"
        }
      ],
      "payable": false,
      "stateMutability": "view",
      "type": "function"
    },
    {
      "constant": true,
      "inputs": [],
      "name": "finalized",
      "outputs": [
        {
          "name": "",
          "type": "bool"
        }
      ],
      "payable": false,
      "stateMutability": "view",
      "type": "function"
    },
    {
      "constant": true,
      "inputs": [],
      "name": "getValidators",
      "outputs": [
        {
          "name": "",
          "type": "address[]"
        }
      ],
      "payable": false,
      "stateMutability": "view",
      "type": "function"
    },
    {
      "constant": true,
      "inputs": [],
      "name": "systemAddress",
      "outputs": [
        {
          "name": "",
          "type": "address"
        }
      ],
      "payable": false,
      "stateMutability": "view",
      "type": "function"
    },
    {
      "constant": false,
      "inputs": [
        {
          "name": "newOwner",
          "type": "address"
        }
      ],
      "name": "transferOwnership",
      "outputs": [],
      "payable": false,
      "stateMutability": "nonpayable",
      "type": "function"
    },
    {
      "inputs": [
        {
          "name": "_initial",
          "type": "address[]"
        }
      ],
      "payable": false,
      "stateMutability": "nonpayable",
      "type": "constructor"
    },
    {
      "anonymous": false,
      "inputs": [
        {
          "indexed": false,
          "name": "currentSet",
          "type": "address[]"
        }
      ],
      "name": "ChangeFinalized",
      "type": "event"
    },
    {
      "anonymous": false,
      "inputs": [
        {
          "indexed": true,
          "name": "reporter",
          "type": "address"
        },
        {
          "indexed": true,
          "name": "reported",
          "type": "address"
        },
        {
          "indexed": true,
          "name": "malicious",
          "type": "bool"
        }
      ],
      "name": "Report",
      "type": "event"
    },
    {
      "anonymous": false,
      "inputs": [
        {
          "indexed": false,
          "name": "previousOwner",
          "type": "address"
        },
        {
          "indexed": false,
          "name": "newOwner",
          "type": "address"
        }
      ],
      "name": "OwnershipTransferred",
      "type": "event"
    },
    {
      "anonymous": false,
      "inputs": [
        {
          "indexed": true,
          "name": "_parentHash",
          "type": "bytes32"
        },
        {
          "indexed": false,
          "name": "_newSet",
          "type": "address[]"
        }
      ],
      "name": "InitiateChange",
      "type": "event"
    },
    {
      "constant": false,
      "inputs": [],
      "name": "finalizeChange",
      "outputs": [],
      "payable": false,
      "stateMutability": "nonpayable",
      "type": "function"
    },
    {
      "constant": false,
      "inputs": [
        {
          "name": "_validator",
          "type": "address"
        },
        {
          "name": "_blockNumber",
          "type": "uint256"
        }
      ],
      "name": "reportBenign",
      "outputs": [],
      "payable": false,
      "stateMutability": "nonpayable",
      "type": "function"
    },
    {
      "constant": false,
      "inputs": [
        {
          "name": "_validator",
          "type": "address"
        },
        {
          "name": "_blockNumber",
          "type": "uint256"
        },
        {
          "name": "_proof",
          "type": "bytes"
        }
      ],
      "name": "reportMalicious",
      "outputs": [],
      "payable": false,
      "stateMutability": "nonpayable",
      "type": "function"
    }
  ],
  "bytecode": "0x608060405260146001553480156200001657600080fd5b5060405162001c3138038062001c31833981018060405260208110156200003c57600080fd5b8101908080516401000000008111156200005557600080fd5b828101905060208101848111156200006c57600080fd5b81518560208202830111640100000000821117156200008a57600080fd5b505092919050505080336000806101000a81548173ffffffffffffffffffffffffffffffffffffffff021916908373ffffffffffffffffffffffffffffffffffffffff1602179055508060039080519060200190620000eb92919062000247565b5060008090505b8151811015620001d4576001600460008484815181106200010f57fe5b602002602001015173ffffffffffffffffffffffffffffffffffffffff1673ffffffffffffffffffffffffffffffffffffffff16815260200190815260200160002060000160006101000a81548160ff02191690831515021790555080600460008484815181106200017d57fe5b602002602001015173ffffffffffffffffffffffffffffffffffffffff1673ffffffffffffffffffffffffffffffffffffffff168152602001908152602001600020600101819055508080600101915050620000f2565b5060036002908054620001e9929190620002d6565b505073fffffffffffffffffffffffffffffffffffffffe600560006101000a81548173ffffffffffffffffffffffffffffffffffffffff021916908373ffffffffffffffffffffffffffffffffffffffff1602179055505062000373565b828054828255906000526020600020908101928215620002c3579160200282015b82811115620002c25782518260006101000a81548173ffffffffffffffffffffffffffffffffffffffff021916908373ffffffffffffffffffffffffffffffffffffffff1602179055509160200191906001019062000268565b5b509050620002d291906200032d565b5090565b8280548282559060005260206000209081019282156200031a5760005260206000209182015b8281111562000319578254825591600101919060010190620002fc565b5b5090506200032991906200032d565b5090565b6200037091905b808211156200036c57600081816101000a81549073ffffffffffffffffffffffffffffffffffffffff02191690555060010162000334565b5090565b90565b6118ae80620003836000396000f3fe608060405234801561001057600080fd5b50600436106100cf5760003560e01c80638da5cb5b1161008c578063c476dd4011610066578063c476dd40146102dc578063d3e848f11461037f578063d69f13bb146103c9578063f2fde38b14610417576100cf565b80638da5cb5b14610211578063b3f05b971461025b578063b7ab4db51461027d576100cf565b80630c857805146100d457806311ae9ed2146100f257806340a141ff146101515780634d238c8e1461019557806375286211146101d95780638c90ac07146101e3575b600080fd5b6100dc61045b565b6040518082815260200191505060405180910390f35b6100fa610461565b6040518080602001828103825283818151815260200191508051906020019060200280838360005b8381101561013d578082015181840152602081019050610122565b505050509050019250505060405180910390f35b6101936004803603602081101561016757600080fd5b81019080803573ffffffffffffffffffffffffffffffffffffffff1690602001909291905050506104ef565b005b6101d7600480360360208110156101ab57600080fd5b81019080803573ffffffffffffffffffffffffffffffffffffffff1690602001909291905050506108f4565b005b6101e1610b2a565b005b61020f600480360360208110156101f957600080fd5b8101908080359060200190929190505050610b8e565b005b610219610c5a565b604051808273ffffffffffffffffffffffffffffffffffffffff1673ffffffffffffffffffffffffffffffffffffffff16815260200191505060405180910390f35b610263610c7f565b604051808215151515815260200191505060405180910390f35b610285610c92565b6040518080602001828103825283818151815260200191508051906020019060200280838360005b838110156102c85780820151818401526020810190506102ad565b505050509050019250505060405180910390f35b61037d600480360360608110156102f257600080fd5b81019080803573ffffffffffffffffffffffffffffffffffffffff169060200190929190803590602001909291908035906020019064010000000081111561033957600080fd5b82018360208201111561034b57600080fd5b8035906020019184600183028401116401000000008311171561036d57600080fd5b9091929391929390505050610d20565b005b610387610d76565b604051808273ffffffffffffffffffffffffffffffffffffffff1673ffffffffffffffffffffffffffffffffffffffff16815260200191505060405180910390f35b610415600480360360408110156103df57600080fd5b81019080803573ffffffffffffffffffffffffffffffffffffffff16906020019092919080359060200190929190505050610d9c565b005b6104596004803603602081101561042d57600080fd5b81019080803573ffffffffffffffffffffffffffffffffffffffff169060200190929190505050610dab565b005b60015481565b606060038054806020026020016040519081016040528092919081815260200182805480156104e557602002820191906000526020600020905b8160009054906101000a900473ffffffffffffffffffffffffffffffffffffffff1673ffffffffffffffffffffffffffffffffffffffff168152602001906001019080831161049b575b5050505050905090565b6000809054906101000a900473ffffffffffffffffffffffffffffffffffffffff1673ffffffffffffffffffffffffffffffffffffffff163373ffffffffffffffffffffffffffffffffffffffff16146105b1576040517f08c379a000000000000000000000000000000000000000000000000000000000815260040180806020018281038252601f8152602001807f53656e6465722073686f756c64206f6e6c7920626520746865206f776e65720081525060200191505060405180910390fd5b806000600460008373ffffffffffffffffffffffffffffffffffffffff1673ffffffffffffffffffffffffffffffffffffffff16815260200190815260200160002060000160009054906101000a900460ff1690506000600460008473ffffffffffffffffffffffffffffffffffffffff1673ffffffffffffffffffffffffffffffffffffffff16815260200190815260200160002060010154905081801561065e575060028054905081105b80156106cc57508273ffffffffffffffffffffffffffffffffffffffff166002828154811061068957fe5b9060005260206000200160009054906101000a900473ffffffffffffffffffffffffffffffffffffffff1673ffffffffffffffffffffffffffffffffffffffff16145b6106d557600080fd5b6000600460008673ffffffffffffffffffffffffffffffffffffffff1673ffffffffffffffffffffffffffffffffffffffff16815260200190815260200160002060010154905060036001600380549050038154811061073157fe5b9060005260206000200160009054906101000a900473ffffffffffffffffffffffffffffffffffffffff166003828154811061076957fe5b9060005260206000200160006101000a81548173ffffffffffffffffffffffffffffffffffffffff021916908373ffffffffffffffffffffffffffffffffffffffff1602179055508060046000600384815481106107c357fe5b9060005260206000200160009054906101000a900473ffffffffffffffffffffffffffffffffffffffff1673ffffffffffffffffffffffffffffffffffffffff1673ffffffffffffffffffffffffffffffffffffffff1681526020019081526020016000206001018190555060036001600380549050038154811061084457fe5b9060005260206000200160006101000a81549073ffffffffffffffffffffffffffffffffffffffff02191690556003805480919060019003610886919061179c565b50600460008673ffffffffffffffffffffffffffffffffffffffff1673ffffffffffffffffffffffffffffffffffffffff168152602001908152602001600020600080820160006101000a81549060ff0219169055600182016000905550506108ed610e79565b5050505050565b6000809054906101000a900473ffffffffffffffffffffffffffffffffffffffff1673ffffffffffffffffffffffffffffffffffffffff163373ffffffffffffffffffffffffffffffffffffffff16146109b6576040517f08c379a000000000000000000000000000000000000000000000000000000000815260040180806020018281038252601f8152602001807f53656e6465722073686f756c64206f6e6c7920626520746865206f776e65720081525060200191505060405180910390fd5b80600460008273ffffffffffffffffffffffffffffffffffffffff1673ffffffffffffffffffffffffffffffffffffffff16815260200190815260200160002060000160009054906101000a900460ff1615610a1157600080fd5b6001600460008473ffffffffffffffffffffffffffffffffffffffff1673ffffffffffffffffffffffffffffffffffffffff16815260200190815260200160002060000160006101000a81548160ff021916908315150217905550600380549050600460008473ffffffffffffffffffffffffffffffffffffffff1673ffffffffffffffffffffffffffffffffffffffff1681526020019081526020016000206001018190555060038290806001815401808255809150509060018203906000526020600020016000909192909190916101000a81548173ffffffffffffffffffffffffffffffffffffffff021916908373ffffffffffffffffffffffffffffffffffffffff16021790555050610b26610e79565b5050565b600560009054906101000a900473ffffffffffffffffffffffffffffffffffffffff1673ffffffffffffffffffffffffffffffffffffffff163373ffffffffffffffffffffffffffffffffffffffff1614610b8457600080fd5b610b8c610eb6565b565b6000809054906101000a900473ffffffffffffffffffffffffffffffffffffffff1673ffffffffffffffffffffffffffffffffffffffff163373ffffffffffffffffffffffffffffffffffffffff1614610c50576040517f08c379a000000000000000000000000000000000000000000000000000000000815260040180806020018281038252601f8152602001807f53656e6465722073686f756c64206f6e6c7920626520746865206f776e65720081525060200191505060405180910390fd5b8060018190555050565b6000809054906101000a900473ffffffffffffffffffffffffffffffffffffffff1681565b600060149054906101000a900460ff1681565b60606002805480602002602001604051908101604052809291908181526020018280548015610d1657602002820191906000526020600020905b8160009054906101000a900473ffffffffffffffffffffffffffffffffffffffff1673ffffffffffffffffffffffffffffffffffffffff1681526020019060010190808311610ccc575b5050505050905090565b610d7033858585858080601f016020809104026020016040519081016040528093929190818152602001838380828437600081840152601f19601f82011690508083019250505050505050610fac565b50505050565b600560009054906101000a900473ffffffffffffffffffffffffffffffffffffffff1681565b610da733838361127c565b5050565b6000809054906101000a900473ffffffffffffffffffffffffffffffffffffffff1673ffffffffffffffffffffffffffffffffffffffff163373ffffffffffffffffffffffffffffffffffffffff1614610e6d576040517f08c379a000000000000000000000000000000000000000000000000000000000815260040180806020018281038252601f8152602001807f53656e6465722073686f756c64206f6e6c7920626520746865206f776e65720081525060200191505060405180910390fd5b610e768161154b565b50565b600060149054906101000a900460ff16610e9257600080fd5b60008060146101000a81548160ff021916908315150217905550610eb46116e9565b565b600060149054906101000a900460ff1615610ed057600080fd5b60036002908054610ee29291906117c8565b506001600060146101000a81548160ff0219169083151502179055507f8564cd629b15f47dc310d45bcbfc9bcf5420b0d51bf0659a16c67f91d2763253600260405180806020018281038252838181548152602001915080548015610f9c57602002820191906000526020600020905b8160009054906101000a900473ffffffffffffffffffffffffffffffffffffffff1673ffffffffffffffffffffffffffffffffffffffff1681526020019060010190808311610f52575b50509250505060405180910390a1565b836000600460008373ffffffffffffffffffffffffffffffffffffffff1673ffffffffffffffffffffffffffffffffffffffff16815260200190815260200160002060000160009054906101000a900460ff1690506000600460008473ffffffffffffffffffffffffffffffffffffffff1673ffffffffffffffffffffffffffffffffffffffff168152602001908152602001600020600101549050818015611059575060028054905081105b80156110c757508273ffffffffffffffffffffffffffffffffffffffff166002828154811061108457fe5b9060005260206000200160009054906101000a900473ffffffffffffffffffffffffffffffffffffffff1673ffffffffffffffffffffffffffffffffffffffff16145b6110d057600080fd5b856000600460008373ffffffffffffffffffffffffffffffffffffffff1673ffffffffffffffffffffffffffffffffffffffff16815260200190815260200160002060000160009054906101000a900460ff1690506000600460008473ffffffffffffffffffffffffffffffffffffffff1673ffffffffffffffffffffffffffffffffffffffff16815260200190815260200160002060010154905081801561117d575060028054905081105b80156111eb57508273ffffffffffffffffffffffffffffffffffffffff16600282815481106111a857fe5b9060005260206000200160009054906101000a900473ffffffffffffffffffffffffffffffffffffffff1673ffffffffffffffffffffffffffffffffffffffff16145b6111f457600080fd5b876001548101431115801561120857504381105b61121157600080fd5b600115158a73ffffffffffffffffffffffffffffffffffffffff168c73ffffffffffffffffffffffffffffffffffffffff167f32c78b6140c46745a46e88cd883707d70dbd2f06d13dd76fe5f499c01290da4f60405160405180910390a45050505050505050505050565b826000600460008373ffffffffffffffffffffffffffffffffffffffff1673ffffffffffffffffffffffffffffffffffffffff16815260200190815260200160002060000160009054906101000a900460ff1690506000600460008473ffffffffffffffffffffffffffffffffffffffff1673ffffffffffffffffffffffffffffffffffffffff168152602001908152602001600020600101549050818015611329575060028054905081105b801561139757508273ffffffffffffffffffffffffffffffffffffffff166002828154811061135457fe5b9060005260206000200160009054906101000a900473ffffffffffffffffffffffffffffffffffffffff1673ffffffffffffffffffffffffffffffffffffffff16145b6113a057600080fd5b846000600460008373ffffffffffffffffffffffffffffffffffffffff1673ffffffffffffffffffffffffffffffffffffffff16815260200190815260200160002060000160009054906101000a900460ff1690506000600460008473ffffffffffffffffffffffffffffffffffffffff1673ffffffffffffffffffffffffffffffffffffffff16815260200190815260200160002060010154905081801561144d575060028054905081105b80156114bb57508273ffffffffffffffffffffffffffffffffffffffff166002828154811061147857fe5b9060005260206000200160009054906101000a900473ffffffffffffffffffffffffffffffffffffffff1673ffffffffffffffffffffffffffffffffffffffff16145b6114c457600080fd5b86600154810143111580156114d857504381105b6114e157600080fd5b600015158973ffffffffffffffffffffffffffffffffffffffff168b73ffffffffffffffffffffffffffffffffffffffff167f32c78b6140c46745a46e88cd883707d70dbd2f06d13dd76fe5f499c01290da4f60405160405180910390a450505050505050505050565b600073ffffffffffffffffffffffffffffffffffffffff168173ffffffffffffffffffffffffffffffffffffffff1614156115ee576040517f08c379a000000000000000000000000000000000000000000000000000000000815260040180806020018281038252601a8152602001807f4e6577206f776e65722073686f756c64206e6f7420656d70747900000000000081525060200191505060405180910390fd5b7f8be0079c531659141344cd1fd0a4f28419497f9722a3daafe3b4186f6b6457e06000809054906101000a900473ffffffffffffffffffffffffffffffffffffffff1682604051808373ffffffffffffffffffffffffffffffffffffffff1673ffffffffffffffffffffffffffffffffffffffff1681526020018273ffffffffffffffffffffffffffffffffffffffff1673ffffffffffffffffffffffffffffffffffffffff1681526020019250505060405180910390a1806000806101000a81548173ffffffffffffffffffffffffffffffffffffffff021916908373ffffffffffffffffffffffffffffffffffffffff16021790555050565b60014303407f55252fa6eee4741b4e24a74a70e9c11fd2c2281df8d6ea13126ff845f7825c8960036040518080602001828103825283818154815260200191508054801561178c57602002820191906000526020600020905b8160009054906101000a900473ffffffffffffffffffffffffffffffffffffffff1673ffffffffffffffffffffffffffffffffffffffff1681526020019060010190808311611742575b50509250505060405180910390a2565b8154818355818111156117c3578183600052602060002091820191016117c2919061181a565b5b505050565b8280548282559060005260206000209081019282156118095760005260206000209182015b828111156118085782548255916001019190600101906117ed565b5b509050611816919061183f565b5090565b61183c91905b80821115611838576000816000905550600101611820565b5090565b90565b61187f91905b8082111561187b57600081816101000a81549073ffffffffffffffffffffffffffffffffffffffff021916905550600101611845565b5090565b9056fea165627a7a7230582018f37a39078870c48910a42a68b5accf69d34e7d268c474bb8cf188d6fa944550029",
  "source": "// Copyright 2017 Peter Czaban, Parity Technologies Ltd.\n//\n// Licensed under the Apache License, Version 2.0 (the \"License\");\n// you may not use this file except in compliance with the License.\n// You may obtain a copy of the License at\n//\n//     http://www.apache.org/licenses/LICENSE-2.0\n//\n// Unless required by applicable law or agreed to in writing, software\n// distributed under the License is distributed on an \"AS IS\" BASIS,\n// WITHOUT WARRANTIES OR CONDITIONS OF ANY KIND, either express or implied.\n// See the License for the specific language governing permissions and\n// limitations under the License.\n\n// An owned validator set contract where the owner can add or remove validators.\n\npragma solidity >=0.4.21 <0.7.0;\n\nimport \"./BaseOwnedSet.sol\";\nimport \"./ValidatorSet.sol\";\n\n\ncontract OwnedSet is ValidatorSet, BaseOwnedSet {\n\t// STATE\n\n\t// System address, used by the block sealer.\n\taddress public systemAddress;\n\n\t// MODIFIERS\n\tmodifier onlySystem() {\n\t\trequire(msg.sender == systemAddress);\n\t\t_;\n\t}\n\n\tconstructor(address[] memory _initial) BaseOwnedSet(_initial)\n\t\tpublic\n\t{\n\t\tsystemAddress = 0xffffFFFfFFffffffffffffffFfFFFfffFFFfFFfE;\n\t}\n\n\t// Called when an initiated change reaches finality and is activated.\n\tfunction finalizeChange()\n\t\texternal\n\t\tonlySystem\n\t{\n\t\tbaseFinalizeChange();\n\t}\n\n\t// MISBEHAVIOUR HANDLING\n\n\tfunction reportBenign(address _validator, uint256 _blockNumber)\n\t\texternal\n\t{\n\t\tbaseReportBenign(msg.sender, _validator, _blockNumber);\n\t}\n\n\tfunction reportMalicious(address _validator, uint256 _blockNumber, bytes calldata _proof)\n\t\texternal\n\t{\n\t\tbaseReportMalicious(\n\t\t\tmsg.sender,\n\t\t\t_validator,\n\t\t\t_blockNumber,\n\t\t\t_proof\n\t\t);\n\t}\n\n\t// PRIVATE\n\n\t// Log desire to change the current list.\n\tfunction initiateChange()\n\t\tprivate\n\t{\n\t\temit InitiateChange(blockhash(block.number - 1), pending);\n\t}\n}\n",
  "sourcePath": "/Users/sahalzain/Workspace/blockchain/parity-permission/contract/contracts/OwnedSet.sol",
  "compiler": {
    "name": "solc",
    "version": "0.5.8+commit.23d335f2.Emscripten.clang"
  },
  "schemaVersion": "3.0.15",
  "updatedAt": "2020-02-06T11:55:20.808Z",
  "devdoc": {
    "methods": {
      "transferOwnership(address)": {
        "details": "Allows the current owner to transfer control of the contract to a newOwner.",
        "params": {
          "newOwner": "The address to transfer ownership to."
        }
      }
    }
  },
  "userdoc": {
    "methods": {}
  }
}